S0160000696E6C32656E6470726F647563742E7372656361
S214080000F0720720F90E0800F50E0800F50E080035
S214080010F50E0800F50E0800F50E080000000000B2
S214080020000000000000000000000000F50E0800B8
S214080030F50E080000000000F50E0800F50E080092
S214080040F50E0800F50E0800F50E0800F50E080077
S214080050F50E0800F50E0800F50E0800F50E080067
S214080060F50E0800F50E080000000000650D0800F3
S214080070790D08008D0D0800A10D0800000000008D
S21408008000000000F50E0800F50E0800F50E080042
S214080090F50E0800F50E0800F50E0800F50E080027
S2140800A0F50E080000000000F50E08000D03080015
S2140800B0F50E0800F50E0800D1030800F50E080036
S2140800C0F50E0800F50E0800F50E0800F50E0800F7
S2140800D0F50E0800F50E0800F50E0800F50E0800E7
S2140800E0F50E0800F50E0800F50E0800F50E0800D7
S2140800F0F50E080008B50548054B1B1A062B00D850
S21408010008BD044B002BFBD09847F9E7E812080017
S214080110EB1208000000000008B50748074B1B1A3A
S2140801209B1003EBD373591000D108BD044A002A6C
S214080130FBD09047F9E700BFE8120800E81208006D
S2140801400000000010B5064C237843B9FFF7D2FF2D
S214080150044B13B10448AFF300800123237010BD8D
S2140801603804072000000000E812080008B5084B0D
S2140801701BB108480849AFF300800848036813B164
S214080180074B03B19847BDE80840FFF7C5BF00BF57
S21408019000000000E81208003C040720E8120800E7
S2140801A00000000038B52520114B9847F0B9114CCF
S2140801B020461149114A0023114DA8472046002120
S2140801C00A460B460F4DA847204600210E4B984777
S2140801D0204607210D4DA84720460A21A847204655
S2140801E000210A460A4B9847012038BD002038BD32
S2140801F09D0E080000000C40007A030A002D31010D
S21408020071020800C5020800A5020800ED020800F1
S214080210B502080038B526200E4B9847B8B90E4CDC
S21408022020460E4B9847204600210D4B98472046FF
S21408023001210A4600230B4DA847204600210A4BF9
S214080240984720460021094B9847012038BD0020D2
S21408025038BD00BF9D0E080000800C40D50508007C
S214080260DD05080011060800F90508004106080023
S21408027030B4012404600024446040F20225C0F82B
S2140802802051C0F80441C0F8144145682B43520079
S214080290B1FBF2F14D1E2D02ADB22B434360204652
S2140802A030BC70474368090101F010010B434360F6
S2140802B0704700BF43681943D201D3B2194341605F
S2140802C0704700BF10B444682243090601F0706402
S2140802D022431B0703F040531A4342605DF8044B61
S2140802E0704700BF02230360704700BF012303FA6C
S2140802F001F10161704700BF0F2903D8143150F887
S2140803002100704700207047006B704770B582B0B8
S21408031021480021214B98470190019B2048214BFA
S21408032098471F4D204C2846A04710F0807FFAD0EB
S2140803301B480A211D4B984702461D4B1D681D4940
S2140803400B681D481D4C84FB0564ED17C5EBA4051A
S21408035030F8134004FB05F4194D85FB0465E417D3
S214080360C4EB6514144420F8134001330B60154998
S214080370096801EB8101B3EB410F02D300210D4B55
S21408038019600C4B19680C4B33F811100E481144C1
S2140803900E4B984702B070BD00000840A106080042
S2140803A000000C40E502080009030800F9020800EE
S2140803B078520720540407205804072067666666A4
S2140803C01F85EB517C52072000800C40F50508007D
S2140803D030B583B02A4800212A4B98470190019BE4
S2140803E029482A4B9847284D294C2846A04710F0FC
S2140803F0807FFAD024480721264B984731280ED804
S214080400254B1B68B3F5967F04D34FF49672224BA0
S2140804101A6033E0204B1A6805321A602EE0B0F5F1
S2140804202F7F0CD21D4B1B68642B03D164221B4BF9
S2140804301A6023E0194B1A6805321A601EE040F26B
S214080440DB5398420BD8154B1B681BB90022134B7D
S2140804501A6013E0114B1A68053A1A600EE040F26B
S2140804606B7398420AD80C4B1B681BB900220A4BC0
S2140804701A6003E0084B1A68053A1A6003B030BDE4
S21408048000400840A106080000000C40E5020800ED
S21408049009030800F90208007C5207207852072052
S2140804A010B51B200E4B98470E4C204600214FF4E3
S2140804B080420D4B98472046002141F268020B4BBC
S2140804C098474FF000620A4B1A6020460021102217
S2140804D0084B984720460021074B984710BD00BF99
S2140804E09D0E080000000840550608009106080002
S2140804F000E100E0990608007906080010B51E20FD
S2140805000D4B98470D4C204600214FF480420C4B6B
S2140805109847204600210B4A0B4B98474FF08042DD
S2140805200A4B1A60204600211022094B984720469D
S2140805300021084B984710BD9D0E08000040084053
S21408054055060800802C80009106080000E100E0AF
S214080550990608007906080010B52120084B984728
S214080560084800210A46084B9847084C20460021B0
S214080570074B984720460021064B984710BD00BFFA
S2140805809D0E0800004008405506080000800840F8
S2140805907106080081060800F8B5044609480021D7
S2140805A0094B98472A2707FB04F7064E0025074CF1
S2140805B030462946A047B842FAD302480021044BE1
S2140805C09847F8BD008008407906080089060800A4
S2140805D08106080001230360704700BF21B1436805
S2140805E043F01003436003E0436823F010034360BE
S2140805F000207047016270474368012906D823F433
S214080600981343EA01414160002070470120704773
S21408061010B4446824F07C5424F47F44090289B258
S2140806200C4312B144F4001401E024F400141B0631
S21408063003F07C531C43446000205DF8044B70476D
S214080640012905D8012303FA01F10161002070474A
S2140806500120704710B489014318022444504FF013
S214080660FF319962196A5A605DF8044B704700BFFB
S214080670C0F8C410704700BF89010523435070476F
S214080680890102234350704700EB811108697047BF
S21408069000EB8111CA61704700EB81114A6270470E
S2140806A000EB8111086A70472DE9F04184B00746CF
S2140806B00D46224B6C46186859689A68DB680FC462
S2140806C004EB171313F8102CD30512015FFA82F8FF
S2140806D025B14FF480011A4A116303E04FF48001F4
S2140806E0174A516303F0F062154C2263DB4303F0AC
S2140806F0F06363634FF4001626630120114DA84784
S21408070066636420A84707F00F0704AB1F4417F872
S214080710102CD3054244D7B203F0F0622263DB43C1
S21408072003F0F063636326630120A84766636420CA
S214080730A847384604B0BDE8F08100BF7C12080020
S21408074000120E40990508002DE9F047344C4FF486
S21408075080072761C4F8A0704FF400152561C4F817
S214080760A0504FF0F0632361C4F8A030656347F2E9
S21408077030502C4EB04767634FF0806AC4F830A0FC
S2140807804FF00079C4F830904FF08078C4F8348081
S2140807904FF40007676325630120B047656341F29D
S2140807A00400B047C4F830A0C4F83090C4F83480C9
S2140807B0676325630120B04765636420B047C4F8C3
S2140807C030A0C4F83090C4F83480676325630120ED
S2140807D0B04765636420B047C4F834A0C4F83090C6
S2140807E0C4F83480676325630120B04765636420D6
S2140807F0B047282000210C4CA04708200021A0471D
S21408080001200021A04740F6B830B0470620002156
S214080810A0470F200021A0470120BDE8F08700BFB1
S21408082000120E4099050800A906080038B50120F0
S2140808300021074DA84740F6B830064CA0470220CE
S2140808400021A84740F6B830A047012038BD00BFB1
S214080850A90608009905080008B561F07F0141EA75
S2140808608010C0B20021034B98472820024B9847B7
S214080870012008BDA9060800990508002DE9F041E1
S21408088000AF051E06DA2D200121244B98476D423D
S2140808900DB93FE01DB12B460021214804E0302069
S2140808A001211E4B984735E080FB0342DB170131D8
S2140808B0D3EBA203F8D121E00C4680FB0531EB17F9
S2140808C0C3EBA10303EB8301A5EB4105303542F8E2
S2140808D0045F1D46611C002BEED1002C1ADB06EBCC
S2140808E081054FF001080D4E55F8040DC0B241467B
S2140808F0B047013CB4F1FF3FF6D10BE089000A315E
S21408090021F00701ADEB010D6E46ADF1040200249F
S2140809100348D2E70120BD46BDE8F081A9060800D5
S2140809206766666670B50446007838B10126044DD9
S2140809303146A84714F8010F0028F9D1012070BDE8
S214080940A90608002DE9F8431F4B98471F4B984700
S2140809500B201F4CA0470C20A0470D20A0470E20B8
S214080960A0471C4B98471C4B98471C4B98471C4B5A
S21408097098471C4B98471C4B98471C481C4B984755
S21408098041F64C501B4B9847DFF89090DFF8648090
S214080990194F4846C047B84701200021174EB047B0
S2140809A01748134CA047174B1868174DA847174801
S2140809B0A04700200146B0471548A047154B1868C1
S2140809C0A8471548A047E4E7210A0800810A080056
S2140809D09D0E08005905080049070800A5010800EB
S2140809E015020800FD040800A10408008C1208007F
S2140809F025090800990508002D0808005908080068
S214080A009C1208007C5207207D080800A8120800DF
S214080A10AC12080078520720B812080090D00300DD
S214080A2010B50D480D4B984700203E210C4B9847B3
S214080A300C4CA0470028FCD00B4B98470B4A0C4B95
S214080A409A620C4CA0470028FCD010200A4B984706
S214080A500A4B984710BD00BF00BD0105C510080029
S214080A60190E08006D0E08007D0E0800013F0D20C7
S214080A7000060E408D0E0800B50D0800A90F0800E8
S214080A8010B54FF40042174B5A600B20164CA0477F
S214080A900C20A0470D20A0470E20A0473B204FF073
S214080AA06051124CA04755204FF06051A047562081
S214080AB04FF06051A04768200D49A0475C200D49BB
S214080AC0A0470D484FF440714FF000620B4B984713
S214080AD02B204FF00061A0472A204FF00061A04766
S214080AE010BD00BF501A0E409D0E0800A50B08004A
S214080AF07900002801000028000E0E40790C080036
S214080B004264B1F1805F16D004D8C1B1B1F1006F6C
S214080B100AD013E0B1F1405F11D0B1F1605F0ED09A
S214080B20B1F1205F0AD17047036F016F0B4023EACB
S214080B300203036702E0036F1343036742607047CC
S214080B40416412F0010F14BF4166016612F00A0FE5
S214080B5014BF0162416212F0020F02D0C0F8801082
S214080B6004E012F0080F18BFC0F880104161016059
S214080B70704700BF10B44164019C0CB1416600E0A8
S214080B8001660BB1016500E041650AB1016300E04A
S214080B904163016101605DF8044B7047C06C7047A3
S214080BA0806C704770B582B00D46440904F5001491
S214080BB004F20774660201F0F044B4F1205F30D006
S214080BC006D8B4F1006F0AD0B4F1805F18D049E0B7
S214080BD0B4F1405F30D0B4F1605F2DD042E000F051
S214080BE01F000124844030464FF0006122461F4B08
S214080BF0984715F0010F14BF74663466012032E07A
S214080C0000F01F000124844030464FF080512246F1
S214080C10164B984715F0010F14BF7466346601200A
S214080C2021E000F01F010124304604FA01F12A46AB
S214080C300F4B9847204616E000F01F01012405F0E8
S214080C40605205EA04030093304604FA01F1B2F153
S214080C50605F14BF00220122C5F38003054DA84734
S214080C60204600E0002002B070BD00BF010B08005F
S214080C70410B0800750B0800F0B583B007460E4612
S214080C80154602F0F044B4F1205F26D006D8B4F139
S214080C90006F0AD0B4F1805F13D034E0B4F1405F3F
S214080CA01FD0B4F1605F1CD02DE04FF000613246D3
S214080CB0164B984715F0010F14BF7E663E66012056
S214080CC022E04FF080513246104B984715F0010F3E
S214080CD014BF7E663E66012016E00D4B984701203D
S214080CE012E005F0605205F00103009338463146DD
S214080CF0B2F1605F14BF00220122C5F38003054CE1
S214080D00A047012000E0002003B0F0BD010B08005A
S214080D10410B0800750B0800F8B504460E460E4B46
S214080D209847054620460D4B9847054012D00C4C70
S214080D3054F80C3CB3420AD154F8081C294206D091
S214080D4023683046984754F8083C25EA03051034CB
S214080D50002DEDD1F8BD00BF9D0B0800A10B0800C3
S214080D608C52072008B502480B21024B984708BD4D
S214080D70000E0E40190D080008B502480C21024B5B
S214080D80984708BD00100E40190D080008B502481F
S214080D900D21024B984708BD00120E40190D080099
S214080DA008B502480E21024B984708BD00140E40AD
S214080DB0190D0800174B1A6B22F0700210431863BF
S214080DC09B6E13F0080F09D14FF40063114901E038
S214080DD0013B19D08A6E12F0080FF9D00D4B1A6B2A
S214080DE022F0030242F002021A63986E10F008001E
S214080DF00CD14FF40063074901E0013B08D08A6E26
S214080E0012F0080FF9D0704701207047002070478D
S214080E100120704700060E4038B111490B6A114A86
S214080E201A40114B13430B6270470D4A136A23F49A
S214080E305C1323F0030343F45C1343F00103090235
S214080E4089B20B431362936E13F0010FFBD0044A6A
S214080E50136A43F09B7343F480331362704700BFF2
S214080E6000060E40FCFFC8FE02003701024B986ED3
S214080E7000F48030704700BF00060E404FF0005266
S214080E80014B9A62704700BF00060E40024B986EF0
S214080E9000F00200704700BF00060E402C2820D83D
S214080EA01F280DD8124B9A69012383401A40934293
S214080EB019D0012303FA00F00D4B18610020704783
S214080EC00B4BD3F808212038012383401A4093425D
S214080ED00BD0012303FA00F0054BC3F800010020ED
S214080EE0704701207047002070470020704700BFF9
S214080EF000060E40FEE700BF10B51E4B1E4A9A427B
S214080F0003D01E4B1B4A9A4204D31D4B1D4A9A42D5
S214080F100FD31AE01C4B1D4CE41A24F003040434C7
S214080F200023144814495A581A500433A342FAD1D5
S214080F30EBE7174B1749C91A21F003011A1D11448C
S214080F40002243F8042F8B42FBD1134A22F0604359
S214080F5023F07F0311498B6002F16042B2F5801FCF
S214080F6003D28A6842F000528A600D4B98470D4BB0
S214080F709847FEE700000720E81208003804072014
S214080F80F052072038040720040007203B040720F7
S214080F9034040720EB5207200000080000ED00E0AC
S214080FA04D110800450908003E4B1B6B03F0030370
S214080FB0032B5FD8DFE803F0020E2B2B3A4B5B6956
S214080FC013F0800F14BF4FF400424FF4FA42374B29
S214080FD01A604FE0334B1B6A13F0807F03D0344A05
S214080FE0324B1A6046E0334A304B1A602D4B1B6A68
S214080FF003F07003102B02D0202B04D03AE02E4AC0
S2140810002A4B1A6036E02A4A284B1A6032E0254BEB
S2140810101B6A13F0807F03D0254A244B1A6012E01F
S214081020244A224B1A601F4B1B6A03F07003102BCE
S21408103002D0202B04D006E01F4A1C4B1A6002E0A0
S2140810401B4A1A4B1A60174B1B6B03F00303022B41
S2140810500DD1144B986A996A144BC0F30A401A6863
S21408106000FB0222C9B2B2FBF1F21A6002E0134A90
S2140810700E4B1A600B4B1B6B03F07003702B07D1DB
S2140810800A4B1A680E49A1FB020252081A607047FA
S214081090044B196B054BC1F302111A68CA401A6053
S2140810A0704700BF00060E40101A0E4000000720CA
S2140810B0001BB70000093D0000127A00001C4E0E07
S2140810C0ABAAAAAA1B4B984206D800231A4A136052
S2140810D002F5007213607047184B984207D84FF411
S2140810E08073154A136002F5007213607047144B3C
S2140810F0984207D84FF400730F4A136002F500723F
S214081100136070470F4B984207D84FF440730A4A4B
S214081110136002F50072136070470B4B984294BF39
S2140811204FF480634FF4A063034A136002F500721D
S21408113013607047BFEA2101000A0E407FF0FA02EA
S214081140FF8FD003FFB3C4047F4A5D0570B50E4B0E
S2140811500E4D0024ED1AAD101E46AC4204D056F8CB
S214081160242090470134F8E700F0ACF8084D094B06
S2140811700024ED1AAD101E46AC4204D056F82420C2
S21408118090470134F8E770BDD0120800D012080066
S214081190D8120800D0120800024B13B1024800F01B
S2140811A005B8704700000000B91108000146002085
S2140811B00246034600F016B838B5084D084C641BBE
S2140811C0A41005EB840524B155F8043D013C984766
S2140811D0F9E7BDE8384000F07FB800BFE412080021
S2140811E0E81208002DE9F8439846224B06461C6884
S2140811F00F46D4F84801914618B904F5A670C4F805
S214081200480143681F2B16DD1B4B1BB94FF0FF30F8
S214081210BDE8F8834FF4C870AFF300800028F5D017
S214081220D4F84811002545600160C4F84801C0F8A4
S2140812308851C0F88C514468A6B10122A24000EB40
S2140812408405C5F88890D0F88811022E41EA020174
S214081250C0F88811C5F8088104D1D0F88C311A4333
S214081260C0F88C21631C0234436040F824700020C8
S214081270BDE8F883BC120800000000000008040C53
S214081280020A060E0109050D030B070F4D61746B64
S2140812906F202620416C69203A29000044656C615D
S2140812A079203A20000000006D73000053747265C0
S2140812B06E6774683A2000002500000010000720BA
S2140812C043000000F8B500BFF8BC08BC9E4670474F
S2140812D0991108006D010800F8B500BFF8BC08BCF5
S20C0812E09E4670474501080010
S2140812E800093D000000000010000720000000006C
S2140812F800000000FC02072064030720CC03072030
S21408130800000000000000000000000000000000C8
S21408131800000000000000000000000000000000B8
S21408132800000000C01208000000000000000000CE
S2140813380000000000000000000000000000000098
S2140813480000000000000000000000000000000088
S2140813580000000000000000000000000000000078
S2140813680000000000000000000000000000000068
S2140813780000000000000000000000000000000058
S2140813880000000000000000000000000000000048
S2140813980000000000000000010000000000000037
S2140813A80E33CDAB34126DE6ECDE05000B000000FC
S2140813B80000000000000000000000000000000018
S2140813C80000000000000000000000000000000008
S2140813D800000000000000000000000000000000F8
S2140813E800000000000000000000000000000000E8
S804080EF9EC
